{
  "contractName": "ArtemisTimeLockFactory",
  "abi": [
    {
      "inputs": [
        {
          "internalType": "uint256",
          "name": "",
          "type": "uint256"
        }
      ],
      "name": "timeLocks",
      "outputs": [
        {
          "internalType": "address",
          "name": "",
          "type": "address"
        }
      ],
      "stateMutability": "view",
      "type": "function"
    },
    {
      "inputs": [
        {
          "internalType": "uint256",
          "name": "_timeLockId",
          "type": "uint256"
        },
        {
          "internalType": "contract IERC20",
          "name": "token_",
          "type": "address"
        },
        {
          "internalType": "address",
          "name": "beneficiary_",
          "type": "address"
        },
        {
          "internalType": "uint256",
          "name": "releaseTime_",
          "type": "uint256"
        },
        {
          "internalType": "uint256",
          "name": "_startTime",
          "type": "uint256"
        },
        {
          "internalType": "uint256",
          "name": "_trancheWeeks",
          "type": "uint256"
        },
        {
          "internalType": "uint256",
          "name": "_maxTranches",
          "type": "uint256"
        },
        {
          "internalType": "uint256",
          "name": "_tranchePercent",
          "type": "uint256"
        }
      ],
      "name": "createTimeLock",
      "outputs": [],
      "stateMutability": "nonpayable",
      "type": "function"
    }
  ],
  "bytecode": "0x608060405234801561001057600080fd5b50611b1d806100206000396000f3fe60806040523480156200001157600080fd5b50600436106200003a5760003560e01c80638ba41cf3146200003f5780638f2900d5146200005f575b600080fd5b6200005d6004803603810190620000579190620001ee565b62000095565b005b6200007d6004803603810190620000779190620001c2565b6200013c565b6040516200008c9190620002e4565b60405180910390f35b60008888888888888888604051620000ad906200016f565b620000c098979695949392919062000301565b604051809103906000f080158015620000dd573d6000803e3d6000fd5b509050806000808b815260200190815260200160002060006101000a81548173ffffffffffffffffffffffffffffffffffffffff021916908373ffffffffffffffffffffffffffffffffffffffff160217905550505050505050505050565b60006020528060005260406000206000915054906101000a900473ffffffffffffffffffffffffffffffffffffffff1681565b611690806200045883390190565b6000813590506200018e8162000409565b92915050565b600081359050620001a58162000423565b92915050565b600081359050620001bc816200043d565b92915050565b600060208284031215620001d557600080fd5b6000620001e584828501620001ab565b91505092915050565b600080600080600080600080610100898b0312156200020c57600080fd5b60006200021c8b828c01620001ab565b98505060206200022f8b828c0162000194565b9750506040620002428b828c016200017d565b9650506060620002558b828c01620001ab565b9550506080620002688b828c01620001ab565b94505060a06200027b8b828c01620001ab565b93505060c06200028e8b828c01620001ab565b92505060e0620002a18b828c01620001ab565b9150509295985092959890939650565b620002bc816200038f565b82525050565b620002cd81620003e1565b82525050565b620002de81620003d7565b82525050565b6000602082019050620002fb6000830184620002b1565b92915050565b60006101008201905062000319600083018b620002d3565b62000328602083018a620002c2565b620003376040830189620002b1565b620003466060830188620002d3565b620003556080830187620002d3565b6200036460a0830186620002d3565b6200037360c0830185620002d3565b6200038260e0830184620002d3565b9998505050505050505050565b60006200039c82620003b7565b9050919050565b6000620003b0826200038f565b9050919050565b600073ffffffffffffffffffffffffffffffffffffffff82169050919050565b6000819050919050565b6000620003ee82620003f5565b9050919050565b60006200040282620003b7565b9050919050565b62000414816200038f565b81146200042057600080fd5b50565b6200042e81620003a3565b81146200043a57600080fd5b50565b6200044881620003d7565b81146200045457600080fd5b5056fe6101806040526000805560006001553480156200001b57600080fd5b506040516200169038038062001690833981810160405281019062000041919062000248565b86868642811162000089576040517f08c379a0000000000000000000000000000000000000000000000000000000008152600401620000809062000487565b60405180910390fd5b8273ffffffffffffffffffffffffffffffffffffffff1660808173ffffffffffffffffffffffffffffffffffffffff1660601b815250508173ffffffffffffffffffffffffffffffffffffffff1660a08173ffffffffffffffffffffffffffffffffffffffff1660601b815250508060c08181525050505050600073ffffffffffffffffffffffffffffffffffffffff168673ffffffffffffffffffffffffffffffffffffffff16141562000175576040517f08c379a00000000000000000000000000000000000000000000000000000000081526004016200016c9062000465565b60405180910390fd5b6127108183620001869190620004ba565b14620001c9576040517f08c379a0000000000000000000000000000000000000000000000000000000008152600401620001c09062000443565b60405180910390fd5b8760e081815250508261012081815250508161010081815250508061014081815250508361016081815250505050505050505050620005ea565b60008151905062000214816200059c565b92915050565b6000815190506200022b81620005b6565b92915050565b6000815190506200024281620005d0565b92915050565b600080600080600080600080610100898b0312156200026657600080fd5b6000620002768b828c0162000231565b9850506020620002898b828c016200021a565b97505060406200029c8b828c0162000203565b9650506060620002af8b828c0162000231565b9550506080620002c28b828c0162000231565b94505060a0620002d58b828c0162000231565b93505060c0620002e88b828c0162000231565b92505060e0620002fb8b828c0162000231565b9150509295985092959890939650565b60006200031a603283620004a9565b91507f546f6b656e54696d654c6f636b3a2070657263656e747320616e64207472616e60008301527f6368657320646f206e6f74203d203130302500000000000000000000000000006020830152604082019050919050565b600062000382603483620004a9565b91507f417274656d697354696d654c6f636b466163746f72793a2062656e656669636960008301527f61727920686173207a65726f20616464726573730000000000000000000000006020830152604082019050919050565b6000620003ea603283620004a9565b91507f546f6b656e54696d656c6f636b3a2072656c656173652074696d65206973206260008301527f65666f72652063757272656e742074696d6500000000000000000000000000006020830152604082019050919050565b600060208201905081810360008301526200045e816200030b565b9050919050565b60006020820190508181036000830152620004808162000373565b9050919050565b60006020820190508181036000830152620004a281620003db565b9050919050565b600082825260208201905092915050565b6000620004c78262000563565b9150620004d48362000563565b9250817fffffffffffffffffffffffffffffffffffffffffffffffffffffffffffffffff048311821515161562000510576200050f6200056d565b5b828202905092915050565b6000620005288262000543565b9050919050565b60006200053c826200051b565b9050919050565b600073ffffffffffffffffffffffffffffffffffffffff82169050919050565b6000819050919050565b7f4e487b7100000000000000000000000000000000000000000000000000000000600052601160045260246000fd5b620005a7816200051b565b8114620005b357600080fd5b50565b620005c1816200052f565b8114620005cd57600080fd5b50565b620005db8162000563565b8114620005e757600080fd5b50565b60805160601c60a05160601c60c05160e051610100516101205161014051610160516110346200065c6000396000610320015260006104b9015260006102f501526000818161035801526104630152600060e001526000610562015260006101060152600061058a01526110346000f3fe608060405234801561001057600080fd5b50600436106100575760003560e01c8063204439531461005c57806338af3eed1461007a57806386d1a69f14610098578063b91d4001146100a2578063fc0c546a146100c0575b600080fd5b6100646100de565b6040516100719190610d6d565b60405180910390f35b610082610102565b60405161008f9190610c2c565b60405180910390f35b6100a061012a565b005b6100aa61055e565b6040516100b79190610d6d565b60405180910390f35b6100c8610586565b6040516100d59190610c70565b60405180910390f35b7f000000000000000000000000000000000000000000000000000000000000000081565b60007f0000000000000000000000000000000000000000000000000000000000000000905090565b61013261055e565b421015610174576040517f08c379a000000000000000000000000000000000000000000000000000000000815260040161016b90610cad565b60405180910390fd5b600061017e610586565b73ffffffffffffffffffffffffffffffffffffffff166370a08231306040518263ffffffff1660e01b81526004016101b69190610c2c565b60206040518083038186803b1580156101ce57600080fd5b505afa1580156101e2573d6000803e3d6000fd5b505050506040513d601f19601f820116820180604052508101906102069190610917565b90506000811161024b576040517f08c379a000000000000000000000000000000000000000000000000000000000815260040161024290610d4d565b60405180910390fd5b600060015414156102ed5761025e610586565b73ffffffffffffffffffffffffffffffffffffffff166370a08231306040518263ffffffff1660e01b81526004016102969190610c2c565b60206040518083038186803b1580156102ae57600080fd5b505afa1580156102c2573d6000803e3d6000fd5b505050506040513d601f19601f820116820180604052508101906102e69190610917565b6001819055505b600062093a807f000000000000000000000000000000000000000000000000000000000000000061031e9190610deb565b7f00000000000000000000000000000000000000000000000000000000000000004261034a9190610e45565b6103549190610dba565b90507f000000000000000000000000000000000000000000000000000000000000000081106104615760008081548092919061038f90610f18565b919050555061045c61039f610102565b6103a7610586565b73ffffffffffffffffffffffffffffffffffffffff166370a08231306040518263ffffffff1660e01b81526004016103df9190610c2c565b60206040518083038186803b1580156103f757600080fd5b505afa15801561040b573d6000803e3d6000fd5b505050506040513d601f19601f8201168201806040525081019061042f9190610917565b610437610586565b73ffffffffffffffffffffffffffffffffffffffff166105ae9092919063ffffffff16565b61055a565b7f0000000000000000000000000000000000000000000000000000000000000000600054108015610493575060005481115b1561051e576000808154809291906104aa90610f18565b919050555060006104dd6001547f0000000000000000000000000000000000000000000000000000000000000000610634565b90506105186104ea610102565b826104f3610586565b73ffffffffffffffffffffffffffffffffffffffff166105ae9092919063ffffffff16565b50610559565b6040517f08c379a000000000000000000000000000000000000000000000000000000000815260040161055090610ccd565b60405180910390fd5b5b5050565b60007f0000000000000000000000000000000000000000000000000000000000000000905090565b60007f0000000000000000000000000000000000000000000000000000000000000000905090565b61062f8363a9059cbb60e01b84846040516024016105cd929190610c47565b604051602081830303815290604052907bffffffffffffffffffffffffffffffffffffffffffffffffffffffff19166020820180517bffffffffffffffffffffffffffffffffffffffffffffffffffffffff8381831617835250505050610657565b505050565b600061271082846106459190610deb565b61064f9190610dba565b905092915050565b60006106b9826040518060400160405280602081526020017f5361666545524332303a206c6f772d6c6576656c2063616c6c206661696c65648152508573ffffffffffffffffffffffffffffffffffffffff1661071e9092919063ffffffff16565b905060008151111561071957808060200190518101906106d991906108ee565b610718576040517f08c379a000000000000000000000000000000000000000000000000000000000815260040161070f90610d2d565b60405180910390fd5b5b505050565b606061072d8484600085610736565b90509392505050565b60608247101561077b576040517f08c379a000000000000000000000000000000000000000000000000000000000815260040161077290610ced565b60405180910390fd5b6107848561084a565b6107c3576040517f08c379a00000000000000000000000000000000000000000000000000000000081526004016107ba90610d0d565b60405180910390fd5b6000808673ffffffffffffffffffffffffffffffffffffffff1685876040516107ec9190610c15565b60006040518083038185875af1925050503d8060008114610829576040519150601f19603f3d011682016040523d82523d6000602084013e61082e565b606091505b509150915061083e82828661085d565b92505050949350505050565b600080823b905060008111915050919050565b6060831561086d578290506108bd565b6000835111156108805782518084602001fd5b816040517f08c379a00000000000000000000000000000000000000000000000000000000081526004016108b49190610c8b565b60405180910390fd5b9392505050565b6000815190506108d381610fd0565b92915050565b6000815190506108e881610fe7565b92915050565b60006020828403121561090057600080fd5b600061090e848285016108c4565b91505092915050565b60006020828403121561092957600080fd5b6000610937848285016108d9565b91505092915050565b61094981610e79565b82525050565b600061095a82610d88565b6109648185610d9e565b9350610974818560208601610ee5565b80840191505092915050565b61098981610ec1565b82525050565b600061099a82610d93565b6109a48185610da9565b93506109b4818560208601610ee5565b6109bd81610fbf565b840191505092915050565b60006109d5603283610da9565b91507f546f6b656e54696d656c6f636b3a2063757272656e742074696d65206973206260008301527f65666f72652072656c656173652074696d6500000000000000000000000000006020830152604082019050919050565b6000610a3b603883610da9565b91507f546f6b656e54696d656c6f636b3a207472616e63686520756e617661696c616260008301527f6c652c2072657175657374656420746f6f206561726c792e00000000000000006020830152604082019050919050565b6000610aa1602683610da9565b91507f416464726573733a20696e73756666696369656e742062616c616e636520666f60008301527f722063616c6c00000000000000000000000000000000000000000000000000006020830152604082019050919050565b6000610b07601d83610da9565b91507f416464726573733a2063616c6c20746f206e6f6e2d636f6e74726163740000006000830152602082019050919050565b6000610b47602a83610da9565b91507f5361666545524332303a204552433230206f7065726174696f6e20646964206e60008301527f6f742073756363656564000000000000000000000000000000000000000000006020830152604082019050919050565b6000610bad602383610da9565b91507f546f6b656e54696d656c6f636b3a206e6f20746f6b656e7320746f2072656c6560008301527f61736500000000000000000000000000000000000000000000000000000000006020830152604082019050919050565b610c0f81610eb7565b82525050565b6000610c21828461094f565b915081905092915050565b6000602082019050610c416000830184610940565b92915050565b6000604082019050610c5c6000830185610940565b610c696020830184610c06565b9392505050565b6000602082019050610c856000830184610980565b92915050565b60006020820190508181036000830152610ca5818461098f565b905092915050565b60006020820190508181036000830152610cc6816109c8565b9050919050565b60006020820190508181036000830152610ce681610a2e565b9050919050565b60006020820190508181036000830152610d0681610a94565b9050919050565b60006020820190508181036000830152610d2681610afa565b9050919050565b60006020820190508181036000830152610d4681610b3a565b9050919050565b60006020820190508181036000830152610d6681610ba0565b9050919050565b6000602082019050610d826000830184610c06565b92915050565b600081519050919050565b600081519050919050565b600081905092915050565b600082825260208201905092915050565b6000610dc582610eb7565b9150610dd083610eb7565b925082610de057610ddf610f90565b5b828204905092915050565b6000610df682610eb7565b9150610e0183610eb7565b9250817fffffffffffffffffffffffffffffffffffffffffffffffffffffffffffffffff0483118215151615610e3a57610e39610f61565b5b828202905092915050565b6000610e5082610eb7565b9150610e5b83610eb7565b925082821015610e6e57610e6d610f61565b5b828203905092915050565b6000610e8482610e97565b9050919050565b60008115159050919050565b600073ffffffffffffffffffffffffffffffffffffffff82169050919050565b6000819050919050565b6000610ecc82610ed3565b9050919050565b6000610ede82610e97565b9050919050565b60005b83811015610f03578082015181840152602081019050610ee8565b83811115610f12576000848401525b50505050565b6000610f2382610eb7565b91507fffffffffffffffffffffffffffffffffffffffffffffffffffffffffffffffff821415610f5657610f55610f61565b5b600182019050919050565b7f4e487b7100000000000000000000000000000000000000000000000000000000600052601160045260246000fd5b7f4e487b7100000000000000000000000000000000000000000000000000000000600052601260045260246000fd5b6000601f19601f8301169050919050565b610fd981610e8b565b8114610fe457600080fd5b50565b610ff081610eb7565b8114610ffb57600080fd5b5056fea2646970667358221220e5178bf3db29bc416b1d3f1094ecd158901d11a2dc144c5d81c8d1ec5fcab8ef64736f6c63430008000033a2646970667358221220dba601fcb778c8611814ad25ee8135d1dae8627cc8bd60cfe4fd3d529caf3cde64736f6c63430008000033",
  "immutableReferences": {},
  "source": "// SPDX-License-Identifier: MIT\r\npragma solidity 0.8.0;\r\n\r\n\r\nimport \"./ArtemisTimeLock.sol\";\r\n\r\n/**\r\n * @title Artemis Token Time Lock Factory\r\n */\r\ncontract ArtemisTimeLockFactory {\r\n    // mapping of timelock contract addresses\r\n    mapping(uint256 => address) public timeLocks;\r\n\r\n    /**\r\n    * @dev Creates an instance of the Artemis Time Lock contract.\r\n    * @param _timeLockId is the numeric ID value that is used to\r\n    * retrieve the address of the corresponding timelock.\r\n    * @param token_ is the address of the ERC20 token being stored.\r\n    * @param beneficiary_ is the address where tokens will be distributed to.\r\n    * @param releaseTime_ is the initial date/time when the release\r\n    * @param _startTime is the date/time the vesting schedule starts at.\r\n    * function will be available to call.\r\n    * @param _trancheWeeks is the number of weeks in each tranche cycle.\r\n    * @param _maxTranches is the total number of tranches that represent\r\n    * the full vesting time for the contract.\r\n    * @param _tranchePercent is the percentage of tokens that will be released\r\n    * during each tranche period.\r\n    */\r\n    function createTimeLock(\r\n        uint256 _timeLockId,\r\n        IERC20 token_,\r\n        address beneficiary_,\r\n        uint256 releaseTime_,\r\n        uint256 _startTime,\r\n        uint256 _trancheWeeks,\r\n        uint256 _maxTranches,\r\n        uint256 _tranchePercent\r\n    ) external {\r\n        // creates a new timelock contract with provided params.\r\n        ArtemisTimeLock timeLock = new ArtemisTimeLock(\r\n            _timeLockId,\r\n            token_,\r\n            beneficiary_,\r\n            releaseTime_,\r\n            _startTime,\r\n            _trancheWeeks,\r\n            _maxTranches,\r\n            _tranchePercent\r\n        );\r\n\r\n        // adds new contract to timeLocks mapping\r\n        timeLocks[_timeLockId] = address(timeLock);\r\n    }\r\n}\r\n",
  "sourcePath": "/mnt/c/Users/Ryan/Documents/f6innovations/artemis-token/contracts/token/contracts/ArtemisTimeLockFactory.sol",
  "compiler": {
    "name": "solc",
    "version": "0.8.0+commit.c7dfd78e.Emscripten.clang"
  },
  "schemaVersion": "3.4.1",
  "updatedAt": "2021-06-04T20:49:45.545Z",
  "devdoc": {
    "kind": "dev",
    "methods": {
      "createTimeLock(uint256,address,address,uint256,uint256,uint256,uint256,uint256)": {
        "details": "Creates an instance of the Artemis Time Lock contract.",
        "params": {
          "_maxTranches": "is the total number of tranches that represent the full vesting time for the contract.",
          "_startTime": "is the date/time the vesting schedule starts at. function will be available to call.",
          "_timeLockId": "is the numeric ID value that is used to retrieve the address of the corresponding timelock.",
          "_tranchePercent": "is the percentage of tokens that will be released during each tranche period.",
          "_trancheWeeks": "is the number of weeks in each tranche cycle.",
          "beneficiary_": "is the address where tokens will be distributed to.",
          "releaseTime_": "is the initial date/time when the release",
          "token_": "is the address of the ERC20 token being stored."
        }
      }
    },
    "title": "Artemis Token Time Lock Factory",
    "version": 1
  },
  "userdoc": {
    "kind": "user",
    "methods": {},
    "version": 1
  }
}