{
  "contractName": "ArtmCrowdsale",
  "abi": [
    {
      "inputs": [
        {
          "internalType": "uint256",
          "name": "exchangeRate",
          "type": "uint256"
        },
        {
          "internalType": "address payable",
          "name": "ethWallet",
          "type": "address"
        },
        {
          "internalType": "contract IERC20",
          "name": "tokenAddress",
          "type": "address"
        },
        {
          "internalType": "uint256",
          "name": "openingTime",
          "type": "uint256"
        },
        {
          "internalType": "uint256",
          "name": "closingTime",
          "type": "uint256"
        },
        {
          "internalType": "address payable",
          "name": "withdrawAddress",
          "type": "address"
        }
      ],
      "payable": false,
      "stateMutability": "nonpayable",
      "type": "constructor"
    },
    {
      "anonymous": false,
      "inputs": [],
      "name": "CrowdsaleFinalized",
      "type": "event"
    },
    {
      "anonymous": false,
      "inputs": [
        {
          "indexed": false,
          "internalType": "uint256",
          "name": "prevClosingTime",
          "type": "uint256"
        },
        {
          "indexed": false,
          "internalType": "uint256",
          "name": "newClosingTime",
          "type": "uint256"
        }
      ],
      "name": "TimedCrowdsaleExtended",
      "type": "event"
    },
    {
      "anonymous": false,
      "inputs": [
        {
          "indexed": true,
          "internalType": "address",
          "name": "purchaser",
          "type": "address"
        },
        {
          "indexed": true,
          "internalType": "address",
          "name": "beneficiary",
          "type": "address"
        },
        {
          "indexed": false,
          "internalType": "uint256",
          "name": "value",
          "type": "uint256"
        },
        {
          "indexed": false,
          "internalType": "uint256",
          "name": "amount",
          "type": "uint256"
        }
      ],
      "name": "TokensPurchased",
      "type": "event"
    },
    {
      "payable": true,
      "stateMutability": "payable",
      "type": "fallback"
    },
    {
      "constant": false,
      "inputs": [
        {
          "internalType": "address",
          "name": "beneficiary",
          "type": "address"
        }
      ],
      "name": "buyTokens",
      "outputs": [],
      "payable": true,
      "stateMutability": "payable",
      "type": "function"
    },
    {
      "constant": true,
      "inputs": [],
      "name": "closingTime",
      "outputs": [
        {
          "internalType": "uint256",
          "name": "",
          "type": "uint256"
        }
      ],
      "payable": false,
      "stateMutability": "view",
      "type": "function"
    },
    {
      "constant": false,
      "inputs": [],
      "name": "finalize",
      "outputs": [],
      "payable": false,
      "stateMutability": "nonpayable",
      "type": "function"
    },
    {
      "constant": true,
      "inputs": [],
      "name": "finalized",
      "outputs": [
        {
          "internalType": "bool",
          "name": "",
          "type": "bool"
        }
      ],
      "payable": false,
      "stateMutability": "view",
      "type": "function"
    },
    {
      "constant": true,
      "inputs": [],
      "name": "hasClosed",
      "outputs": [
        {
          "internalType": "bool",
          "name": "",
          "type": "bool"
        }
      ],
      "payable": false,
      "stateMutability": "view",
      "type": "function"
    },
    {
      "constant": true,
      "inputs": [],
      "name": "isOpen",
      "outputs": [
        {
          "internalType": "bool",
          "name": "",
          "type": "bool"
        }
      ],
      "payable": false,
      "stateMutability": "view",
      "type": "function"
    },
    {
      "constant": true,
      "inputs": [],
      "name": "openingTime",
      "outputs": [
        {
          "internalType": "uint256",
          "name": "",
          "type": "uint256"
        }
      ],
      "payable": false,
      "stateMutability": "view",
      "type": "function"
    },
    {
      "constant": true,
      "inputs": [],
      "name": "rate",
      "outputs": [
        {
          "internalType": "uint256",
          "name": "",
          "type": "uint256"
        }
      ],
      "payable": false,
      "stateMutability": "view",
      "type": "function"
    },
    {
      "constant": true,
      "inputs": [],
      "name": "token",
      "outputs": [
        {
          "internalType": "contract IERC20",
          "name": "",
          "type": "address"
        }
      ],
      "payable": false,
      "stateMutability": "view",
      "type": "function"
    },
    {
      "constant": true,
      "inputs": [],
      "name": "wallet",
      "outputs": [
        {
          "internalType": "address payable",
          "name": "",
          "type": "address"
        }
      ],
      "payable": false,
      "stateMutability": "view",
      "type": "function"
    },
    {
      "constant": true,
      "inputs": [],
      "name": "weiRaised",
      "outputs": [
        {
          "internalType": "uint256",
          "name": "",
          "type": "uint256"
        }
      ],
      "payable": false,
      "stateMutability": "view",
      "type": "function"
    },
    {
      "constant": true,
      "inputs": [],
      "name": "withdrawAddress",
      "outputs": [
        {
          "internalType": "address",
          "name": "",
          "type": "address"
        }
      ],
      "payable": false,
      "stateMutability": "view",
      "type": "function"
    }
  ],
  "bytecode": "0x608060405234801561001057600080fd5b506040516114f83803806114f8833981810160405260c081101561003357600080fd5b81019080805190602001909291908051906020019092919080519060200190929190805190602001909291908051906020019092919080519060200190929190505050828287878760016000806101000a81548160ff0219169083151502179055506000831161010b576040517f08c379a00000000000000000000000000000000000000000000000000000000081526004018080602001828103825260148152602001807f43726f776473616c653a2072617465206973203000000000000000000000000081525060200191505060405180910390fd5b600073ffffffffffffffffffffffffffffffffffffffff168273ffffffffffffffffffffffffffffffffffffffff161415610191576040517f08c379a00000000000000000000000000000000000000000000000000000000081526004018080602001828103825260258152602001806114d36025913960400191505060405180910390fd5b600073ffffffffffffffffffffffffffffffffffffffff168173ffffffffffffffffffffffffffffffffffffffff161415610217576040517f08c379a00000000000000000000000000000000000000000000000000000000081526004018080602001828103825260248152602001806114af6024913960400191505060405180910390fd5b8260028190555081600160006101000a81548173ffffffffffffffffffffffffffffffffffffffff021916908373ffffffffffffffffffffffffffffffffffffffff16021790555080600060016101000a81548173ffffffffffffffffffffffffffffffffffffffff021916908373ffffffffffffffffffffffffffffffffffffffff160217905550505050428210156102fc576040517f08c379a00000000000000000000000000000000000000000000000000000000081526004018080602001828103825260338152602001806114166033913960400191505060405180910390fd5b818111610354576040517f08c379a00000000000000000000000000000000000000000000000000000000081526004018080602001828103825260378152602001806114786037913960400191505060405180910390fd5b816004819055508060058190555050506000600660006101000a81548160ff021916908315150217905550600073ffffffffffffffffffffffffffffffffffffffff168173ffffffffffffffffffffffffffffffffffffffff161415610405576040517f08c379a000000000000000000000000000000000000000000000000000000000815260040180806020018281038252602f815260200180611449602f913960400191505060405180910390fd5b80600660016101000a81548173ffffffffffffffffffffffffffffffffffffffff021916908373ffffffffffffffffffffffffffffffffffffffff160217905550505050505050610fbb8061045b6000396000f3fe6080604052600436106100a75760003560e01c80634bb278f3116100645780634bb278f3146101ef578063521eb27314610206578063b3f05b971461025d578063b7a8807c1461028c578063ec8ac4d8146102b7578063fc0c546a146102fb576100a7565b80631515bc2b146100b95780631581b600146100e85780632c4e722e1461013f5780634042b66f1461016a57806347535d7b146101955780634b6753bc146101c4575b6100b76100b2610352565b61035a565b005b3480156100c557600080fd5b506100ce6104e5565b604051808215151515815260200191505060405180910390f35b3480156100f457600080fd5b506100fd6104f1565b604051808273ffffffffffffffffffffffffffffffffffffffff1673ffffffffffffffffffffffffffffffffffffffff16815260200191505060405180910390f35b34801561014b57600080fd5b5061015461051b565b6040518082815260200191505060405180910390f35b34801561017657600080fd5b5061017f610525565b6040518082815260200191505060405180910390f35b3480156101a157600080fd5b506101aa61052f565b604051808215151515815260200191505060405180910390f35b3480156101d057600080fd5b506101d961054a565b6040518082815260200191505060405180910390f35b3480156101fb57600080fd5b50610204610554565b005b34801561021257600080fd5b5061021b610685565b604051808273ffffffffffffffffffffffffffffffffffffffff1673ffffffffffffffffffffffffffffffffffffffff16815260200191505060405180910390f35b34801561026957600080fd5b506102726106af565b604051808215151515815260200191505060405180910390f35b34801561029857600080fd5b506102a16106c6565b6040518082815260200191505060405180910390f35b6102f9600480360360208110156102cd57600080fd5b81019080803573ffffffffffffffffffffffffffffffffffffffff16906020019092919050505061035a565b005b34801561030757600080fd5b506103106106d0565b604051808273ffffffffffffffffffffffffffffffffffffffff1673ffffffffffffffffffffffffffffffffffffffff16815260200191505060405180910390f35b600033905090565b6000809054906101000a900460ff166103db576040517f08c379a000000000000000000000000000000000000000000000000000000000815260040180806020018281038252601f8152602001807f5265656e7472616e637947756172643a207265656e7472616e742063616c6c0081525060200191505060405180910390fd5b60008060006101000a81548160ff021916908315150217905550600034905061040482826106f9565b600061040f82610781565b90506104268260035461079f90919063ffffffff16565b6003819055506104368382610827565b8273ffffffffffffffffffffffffffffffffffffffff16610455610352565b73ffffffffffffffffffffffffffffffffffffffff167f6faf93231a456e552dbc9961f58d9713ee4f2e69d15f1975b050ef0911053a7b8484604051808381526020018281526020019250505060405180910390a36104b48383610835565b6104bc610839565b6104c683836108a4565b505060016000806101000a81548160ff02191690831515021790555050565b60006005544211905090565b6000600660019054906101000a900473ffffffffffffffffffffffffffffffffffffffff16905090565b6000600254905090565b6000600354905090565b6000600454421015801561054557506005544211155b905090565b6000600554905090565b600660009054906101000a900460ff16156105ba576040517f08c379a0000000000000000000000000000000000000000000000000000000008152600401808060200182810382526027815260200180610f0c6027913960400191505060405180910390fd5b6105c26104e5565b610634576040517f08c379a00000000000000000000000000000000000000000000000000000000081526004018080602001828103825260208152602001807f46696e616c697a61626c6543726f776473616c653a206e6f7420636c6f73656481525060200191505060405180910390fd5b6001600660006101000a81548160ff0219169083151502179055506106576108a8565b7f9270cc390c096600a1c17c44345a1ba689fafd99d97487b10cfccf86cf73183660405160405180910390a1565b6000600160009054906101000a900473ffffffffffffffffffffffffffffffffffffffff16905090565b6000600660009054906101000a900460ff16905090565b6000600454905090565b60008060019054906101000a900473ffffffffffffffffffffffffffffffffffffffff16905090565b61070161052f565b610773576040517f08c379a00000000000000000000000000000000000000000000000000000000081526004018080602001828103825260188152602001807f54696d656443726f776473616c653a206e6f74206f70656e000000000000000081525060200191505060405180910390fd5b61077d82826109a9565b5050565b600061079860025483610aaa90919063ffffffff16565b9050919050565b60008082840190508381101561081d576040517f08c379a000000000000000000000000000000000000000000000000000000000815260040180806020018281038252601b8152602001807f536166654d6174683a206164646974696f6e206f766572666c6f77000000000081525060200191505060405180910390fd5b8091505092915050565b6108318282610b30565b5050565b5050565b600160009054906101000a900473ffffffffffffffffffffffffffffffffffffffff1673ffffffffffffffffffffffffffffffffffffffff166108fc349081150290604051600060405180830381858888f193505050501580156108a1573d6000803e3d6000fd5b50565b5050565b61099f6108b36104f1565b6108bb6106d0565b73ffffffffffffffffffffffffffffffffffffffff166370a08231306040518263ffffffff1660e01b8152600401808273ffffffffffffffffffffffffffffffffffffffff1673ffffffffffffffffffffffffffffffffffffffff16815260200191505060206040518083038186803b15801561093757600080fd5b505afa15801561094b573d6000803e3d6000fd5b505050506040513d602081101561096157600080fd5b810190808051906020019092919050505061097a6106d0565b73ffffffffffffffffffffffffffffffffffffffff16610b819092919063ffffffff16565b6109a7610c52565b565b600073ffffffffffffffffffffffffffffffffffffffff168273ffffffffffffffffffffffffffffffffffffffff161415610a2f576040517f08c379a000000000000000000000000000000000000000000000000000000000815260040180806020018281038252602a815260200180610f33602a913960400191505060405180910390fd5b6000811415610aa6576040517f08c379a00000000000000000000000000000000000000000000000000000000081526004018080602001828103825260198152602001807f43726f776473616c653a20776569416d6f756e7420697320300000000000000081525060200191505060405180910390fd5b5050565b600080831415610abd5760009050610b2a565b6000828402905082848281610ace57fe5b0414610b25576040517f08c379a0000000000000000000000000000000000000000000000000000000008152600401808060200182810382526021815260200180610eeb6021913960400191505060405180910390fd5b809150505b92915050565b610b7d8282600060019054906101000a900473ffffffffffffffffffffffffffffffffffffffff1673ffffffffffffffffffffffffffffffffffffffff16610b819092919063ffffffff16565b5050565b610c4d838473ffffffffffffffffffffffffffffffffffffffff1663a9059cbb905060e01b8484604051602401808373ffffffffffffffffffffffffffffffffffffffff1673ffffffffffffffffffffffffffffffffffffffff16815260200182815260200192505050604051602081830303815290604052907bffffffffffffffffffffffffffffffffffffffffffffffffffffffff19166020820180517bffffffffffffffffffffffffffffffffffffffffffffffffffffffff8381831617835250505050610c54565b505050565b565b610c738273ffffffffffffffffffffffffffffffffffffffff16610e9f565b610ce5576040517f08c379a000000000000000000000000000000000000000000000000000000000815260040180806020018281038252601f8152602001807f5361666545524332303a2063616c6c20746f206e6f6e2d636f6e74726163740081525060200191505060405180910390fd5b600060608373ffffffffffffffffffffffffffffffffffffffff16836040518082805190602001908083835b60208310610d345780518252602082019150602081019050602083039250610d11565b6001836020036101000a0380198251168184511680821785525050505050509050019150506000604051808303816000865af19150503d8060008114610d96576040519150601f19603f3d011682016040523d82523d6000602084013e610d9b565b606091505b509150915081610e13576040517f08c379a00000000000000000000000000000000000000000000000000000000081526004018080602001828103825260208152602001807f5361666545524332303a206c6f772d6c6576656c2063616c6c206661696c656481525060200191505060405180910390fd5b600081511115610e9957808060200190516020811015610e3257600080fd5b8101908080519060200190929190505050610e98576040517f08c379a000000000000000000000000000000000000000000000000000000000815260040180806020018281038252602a815260200180610f5d602a913960400191505060405180910390fd5b5b50505050565b60008060007fc5d2460186f7233c927e7db2dcc703c0e500b653ca82273b7bfad8045d85a47060001b9050833f9150808214158015610ee157506000801b8214155b9250505091905056fe536166654d6174683a206d756c7469706c69636174696f6e206f766572666c6f7746696e616c697a61626c6543726f776473616c653a20616c72656164792066696e616c697a656443726f776473616c653a2062656e656669636961727920697320746865207a65726f20616464726573735361666545524332303a204552433230206f7065726174696f6e20646964206e6f742073756363656564a265627a7a72315820a449c922320acab49c6c28b323ea6c5fb9e052780b1c7291cc582ad98b1bc8f564736f6c6343000510003254696d656443726f776473616c653a206f70656e696e672074696d65206973206265666f72652063757272656e742074696d6543726f776473616c653a207769746864726177206164647265737320697320746865207a65726f206164647265737354696d656443726f776473616c653a206f70656e696e672074696d65206973206e6f74206265666f726520636c6f73696e672074696d6543726f776473616c653a20746f6b656e20697320746865207a65726f206164647265737343726f776473616c653a2077616c6c657420697320746865207a65726f2061646472657373",
  "source": "// SPDX-License-Identifier: MIT\r\npragma solidity ^0.5.0;\r\n\r\n\r\nimport '@openzeppelin/contracts/crowdsale/Crowdsale.sol';\r\nimport '@openzeppelin/contracts/token/ERC20/IERC20.sol';\r\nimport '@openzeppelin/contracts/crowdsale/validation/TimedCrowdsale.sol';\r\nimport '@openzeppelin/contracts/crowdsale/distribution/FinalizableCrowdsale.sol';\r\n\r\n/**\r\n * @title Artemis Crowdsale Contract.\r\n */\r\ncontract ArtmCrowdsale is Crowdsale, TimedCrowdsale, FinalizableCrowdsale {\r\n    // Address where unsold tokens will be deposited when crowdsale is closed.\r\n    address payable private _withdrawAddress;\r\n\r\n    /**\r\n     * @dev Constructs the crowdsale contract for the Artemis token\r\n     * @param withdrawAddress Address of the wallet which will receive\r\n     * any unsold tokens upon finalization.\r\n     */\r\n    constructor(\r\n        uint256 exchangeRate,\r\n        address payable ethWallet,\r\n        IERC20 tokenAddress,\r\n        uint256 openingTime,\r\n        uint256 closingTime,\r\n        address payable withdrawAddress\r\n    )\r\n    Crowdsale(\r\n        exchangeRate,\r\n        ethWallet,\r\n        tokenAddress\r\n    )\r\n    TimedCrowdsale(\r\n        openingTime,\r\n        closingTime\r\n    )\r\n    FinalizableCrowdsale()\r\n    public\r\n    {\r\n        require(withdrawAddress != address(0), \"Crowdsale: withdraw address is the zero address\");\r\n        _withdrawAddress = withdrawAddress;\r\n    }\r\n\r\n    /**\r\n     * @return the withdraw address\r\n     */\r\n    function withdrawAddress() public view returns (address) {\r\n        return _withdrawAddress;\r\n    }\r\n\r\n    /**\r\n     * @dev Override of _finalization logic to withdraw any unsold tokens once\r\n     * the crowdsale is closed.\r\n     */\r\n    function _finalization() internal {\r\n        token().safeTransfer(withdrawAddress(), token().balanceOf(address(this)));\r\n        super._finalization();\r\n    }\r\n}\r\n",
  "sourcePath": "/mnt/c/Users/Ryan/Documents/f6innovations/artemis-token/contracts/crowdsale/contracts/ArtmCrowdsale.sol",
  "compiler": {
    "name": "solc",
    "version": "0.5.16+commit.9c3226ce.Emscripten.clang"
  },
  "schemaVersion": "3.4.1",
  "updatedAt": "2021-06-04T20:54:10.144Z",
  "devdoc": {
    "methods": {
      "buyTokens(address)": {
        "details": "low level token purchase ***DO NOT OVERRIDE*** This function has a non-reentrancy guard, so it shouldn't be called by another `nonReentrant` function.",
        "params": {
          "beneficiary": "Recipient of the token purchase"
        }
      },
      "closingTime()": {
        "return": "the crowdsale closing time."
      },
      "constructor": {
        "details": "Constructs the crowdsale contract for the Artemis token",
        "params": {
          "withdrawAddress": "Address of the wallet which will receive any unsold tokens upon finalization."
        }
      },
      "finalize()": {
        "details": "Must be called after crowdsale ends, to do some extra finalization work. Calls the contract's finalization function."
      },
      "finalized()": {
        "return": "true if the crowdsale is finalized, false otherwise."
      },
      "hasClosed()": {
        "details": "Checks whether the period in which the crowdsale is open has already elapsed.",
        "return": "Whether crowdsale period has elapsed"
      },
      "isOpen()": {
        "return": "true if the crowdsale is open, false otherwise."
      },
      "openingTime()": {
        "return": "the crowdsale opening time."
      },
      "rate()": {
        "return": "the number of token units a buyer gets per wei."
      },
      "token()": {
        "return": "the token being sold."
      },
      "wallet()": {
        "return": "the address where funds are collected."
      },
      "weiRaised()": {
        "return": "the amount of wei raised."
      },
      "withdrawAddress()": {
        "return": "the withdraw address"
      }
    },
    "title": "Artemis Crowdsale Contract."
  },
  "userdoc": {
    "methods": {}
  }
}